:100000000C942A000C943F000C943F000C943F0089
:100010000C943F000C943F000C943F000C943F0064
:100020000C943F000C943F000C943F000C943F0054
:100030000C943F000C943F000C943F000C943F0044
:100040000C943F000C943F000C943F000C943F0034
:100050000C943F0011241FBECFE5D8E0DEBFCDBF1A
:1000600010E0A0E6B0E0E6E5F2E002C005900D92F7
:10007000A038B107D9F70E944E000C9429010C94C6
:10008000000028B36AE00E941D01692F30E1839FC0
:10009000C0011124682B822F0C940D010E94620074
:1000A000C0E0CF5FC43609F4C0E08C2F0E9441004D
:1000B0002FE789EA93E0215080409040E1F700C0AB
:1000C0000000EFCFE0E6F0E040E081E090E0519109
:1000D000242F2770342F369536953695513009F4F4
:1000E00051C090F0523009F093C05AB3BC0102C025
:1000F000660F771F2A95E2F79B01362F309535233F
:100100003ABB3BB3232B83C0323001F1333061F172
:10011000313071F05AB3BC0102C0660F771F2A95C7
:10012000E2F79B01352F322B3ABB3BB320953DC004
:1001300057B3BC0102C0660F771F2A95E2F79B01F7
:10014000352F322B37BB38B320953EC054B3BC019A
:1001500002C0660F771F2A95E2F79B01352F322BDD
:1001600034BB35B3209540C051B3BC0102C0660F0B
:10017000771F2A95E2F79B01352F322B31BB32B323
:10018000209542C0323019F1333089F1313079F0A5
:100190005AB3BC0102C0660F771F2A95E2F79B0194
:1001A0002095352F32233ABB3BB3232330C057B3BE
:1001B000BC0102C0660F771F2A95E2F79B012095CC
:1001C000352F322337BB38B3232328BB21C054B388
:1001D000BC0102C0660F771F2A95E2F79B012095AC
:1001E000352F322334BB35B3232325BB11C051B384
:1001F000BC0102C0660F771F2A95E2F79B0120958C
:10020000352F322331BB32B3232322BB01C02BBB9A
:100210004F5F403209F05BCF0895813041F028F004
:10022000823039F0833039F008956BBB089568BB94
:10023000089565BB089562BB0895991B79E004C0D9
:10024000991F961708F0961B881F7A95C9F7809515
:060250000895F894FFCFB1
:100256000000000000000000000000000000000098
:100266000000000000000000000000000000000088
:00000001FF
