:100000000C942A000C9447000C9447000C94470071
:100010000C9447000C9447000C9447000C94470044
:100020000C9447000C9447000C9447000C94470034
:100030000C9447000C9463070C9496070C94C90722
:100040000C9447000C9447000C9447000C94470014
:100050000C94470011241FBECFE5D8E0DEBFCDBF12
:1000600010E0A0E6B0E0E2E7FFE202C005900D92EA
:10007000AA3AB107D9F710E0AAEAB0E001C01D9290
:10008000A53EB107E1F70E9458150C94B7170C94E0
:100090000000EF92FF920F931F937B018C0120E0F1
:1000A00030E040E05FE40E94490388238CF0C801FF
:1000B000B70120E030E040E05FE40E94C1010E940F
:1000C000A9039B01AC01205030404040504806C07D
:1000D000C801B7010E94A9039B01AC01B901CA0183
:1000E0001F910F91FF90EF900895A0E0B0E0EBE733
:1000F000F0E00C94E816DC012B01FA019C9192309F
:1001000008F439C1EB018881823008F433C194309E
:1001100069F4843009F02FC111969C91119789815F
:10012000981709F428C1A1E8B0E025C1843009F48A
:1001300021C18230A9F4923009F01DC19A01AD01AC
:1001400088E0EA010990AE01E90109929E0181501F
:10015000C1F7E201898111969C918923818308C1AD
:10016000923009F407C112962D903C901397EB0141
:100170008A819B811496AD90BD90CD90DC901797AD
:10018000EC80FD800E811F819101281B390BB90184
:1001900037FF04C066277727621B730B6032710537
:1001A0000CF061C0121613066CF537014801062EDB
:1001B00004C096948794779467940A94D2F721E0C8
:1001C00030E040E050E004C0220F331F441F551FB1
:1001D0006A95D2F721503040404050402E213F21B7
:1001E00040235123211531054105510521F021E01E
:1001F00030E040E050E079018A01E628F72808293C
:1002000019293CC0232BD1F1260E371E350146019A
:10021000062E04C096948794779467940A94D2F734
:1002200021E030E040E050E004C0220F331F441FC3
:10023000551F6A95D2F721503040404050402A2146
:100240003B214C215D21211531054105510521F04E
:1002500021E030E040E050E059016A01A628B728CB
:10026000C828D9280BC0821593052CF01C01AA249C
:10027000BB24650103C0EE24FF24870111969C91E5
:10028000D20111968C91981709F445C0992339F041
:10029000A80197012A193B094C095D0906C0A6016E
:1002A00095012E193F09400B510B57FD08C01182D3
:1002B0003382228224833583468357831DC081E0A5
:1002C00081833382228288279927DC01821B930B4A
:1002D000A40BB50B84839583A683B7830DC0220F2F
:1002E000331F441F551F24833583468357838281E0
:1002F000938101979383828324813581468157813D
:10030000DA01C9010197A109B1098F5F9F4FAF4F72
:10031000BF4328F30BC0918333822282EA0CFB1C7B
:100320000C1D1D1DE482F5820683178383E0808304
:10033000248135814681578157FF1AC0C901AA27F8
:1003400097FDA095BA2F81709070A070B0705695EF
:10035000479537952795822B932BA42BB52B848318
:100360009583A683B7838281938101969383828349
:10037000DF0101C0D201CD01CDB7DEB7E2E10C94BF
:100380000417A0E2B0E0E7ECF1E00C94F416698306
:100390007A838B839C832D833E834F835887E9E048
:1003A000EE2EF12CEC0EFD1ECE010196B7010E943F
:1003B000D2048E010F5E1F4FCE010596B8010E9438
:1003C000D2048A8991E089278A8BC701B801AE01DE
:1003D000475E5F4F0E9475000E94FD03A096E6E015
:1003E0000C941017A0E2B0E0E8EFF1E00C94F416E2
:1003F00069837A838B839C832D833E834F835887C5
:10040000F9E0EF2EF12CEC0EFD1ECE010196B701A6
:100410000E94D2048E010F5E1F4FCE010596B801D7
:100420000E94D204C701B801AE01475E5F4F0E942F
:1004300075000E94FD03A096E6E00C941017A0E260
:10044000B0E0E5E2F2E00C94E81669837A838B83EE
:100450009C832D833E834F835887CE010196BE0136
:10046000675F7F4F0E94D204CE010596BE016F5E8A
:100470007F4F0E94D2049985923088F0898982301A
:10048000C8F0943019F4823051F404C0843029F457
:10049000923081F481E890E0C6C0923049F420E0C7
:1004A0009A858A89981321E02A87CE010996BBC0D4
:1004B000823049F420E09A858A89981321E02A8BBA
:1004C000CE014196B0C02D843E844F8458886D88FB
:1004D0007E888F88988CEE24FF248701AA24BB2471
:1004E000650140E050E060E070E0E0E0F0E0C10174
:1004F00081709070892BE9F0E60CF71C081D191D1E
:100500009A01AB012A0D3B1D4C1D5D1D80E090E062
:10051000A0E0B0E0E614F7040805190520F481E036
:1005200090E0A0E0B0E0BA01A901480F591F6A1F8E
:100530007B1FAA0CBB1CCC1CDD1C97FE08C081E0F5
:1005400090E0A0E0B0E0A82AB92ACA2ADB2A3196B6
:10055000E032F10549F0660C771C881C991C569412
:10056000479437942794C3CFFA85EA892B893C892D
:100570008B859C85280F391F2E5F3F4F17C0CA01FE
:1005800081709070892B61F016950795F794E79428
:1005900080E090E0A0E0B0E8E82AF92A0A2B1B2BC3
:1005A00076956795579547952F5F3F4F77FDE7CF36
:1005B0000CC0440F551F661F771F17FD4160EE0CDE
:1005C000FF1C001F111F21503040403090E05907A0
:1005D00090E0690790E4790760F32B8F3C8FDB0193
:1005E000CA018F779070A070B07080349105A1051A
:1005F000B10561F447FD0AC0E114F10401051105DC
:1006000029F0405C5F4F6F4F7F4F40781A8EFE1786
:1006100011F081E08A8F4D8F5E8F6F8F78A383E01A
:10062000898FCE0149960E94FD03A096E2E10C94C9
:100630000417A8E1B0E0EFE1F3E00C94F41669834D
:100640007A838B839C832D833E834F83588789E0F5
:10065000E82EF12CEC0EFD1ECE010196B7010E9492
:10066000D2048E010F5E1F4FCE010596B8010E9485
:10067000D2048985823040F08989823028F0C70110
:10068000B8010E944A0501C08FEF6896E6E00C941D
:100690001017A8E1B0E0EFE4F3E00C94F4166983DE
:1006A0007A838B839C832D833E834F83588789E095
:1006B000E82EF12CEC0EFD1ECE010196B7010E9432
:1006C000D2048E010F5E1F4FCE010596B8010E9425
:1006D000D2048985823040F08989823028F0C701B0
:1006E000B8010E944A0501C08FEF6896E6E00C94BD
:1006F0001017A8E1B0E0EFE7F3E00C94F41669837B
:100700007A838B839C832D833E834F83588789E034
:10071000E82EF12CEC0EFD1ECE010196B7010E94D1
:10072000D2048E010F5E1F4FCE010596B8010E94C4
:10073000D2048985823040F08989823028F0C7014F
:10074000B8010E944A0501C081E06896E6E00C9479
:100750001017ACE0B0E0EFEAF3E00C94F816698310
:100760007A838B839C83CE010196BE016B5F7F4FA2
:100770000E94D2048D81823061F1823050F1843048
:1007800021F48E81882351F12EC02F81388537FDC9
:1007900020C06E812F3131051CF06623F9F023C093
:1007A0008EE190E0821B930B29853A854B855C8511
:1007B00004C056954795379527958A95D2F76623B5
:1007C000B1F050954095309521953F4F4F4F5F4F79
:1007D0000EC020E030E040E050E009C02FEF3FEFD6
:1007E0004FEF5FE704C020E030E040E050E8B9019F
:1007F000CA012C96E2E00C941417DF92EF92FF925C
:100800000F931F93FC01E480F58006811781D1804E
:100810008081823048F480E090E0A0E1B0E0E82AF6
:10082000F92A0A2B1B2BA5C0843009F49FC0823003
:1008300021F4EE24FF24870105C0E114F104010531
:10084000110519F4E0E0F0E096C0628173819FEF3A
:10085000623879070CF05BC022E83FEF261B370BAC
:100860002A3131052CF020E030E040E050E02AC091
:10087000B801A701022E04C0769567955795479554
:100880000A94D2F781E090E0A0E0B0E004C0880FC5
:10089000991FAA1FBB1F2A95D2F70197A109B10979
:1008A0008E219F21A023B1230097A105B10521F03E
:1008B00081E090E0A0E0B0E09A01AB01282B392B59
:1008C0004A2B5B2BDA01C9018F779070A070B07052
:1008D00080349105A105B10539F427FF09C0205CDA
:1008E0003F4F4F4F5F4F04C0215C3F4F4F4F5F4F13
:1008F000E0E0F0E02030A0E03A07A0E04A07A0E402
:100900005A0710F0E1E0F0E079018A0127C0603871
:10091000710564F5FB01E158FF4FD801C7018F77DE
:100920009070A070B07080349105A105B10539F4C4
:10093000E7FE0DC080E490E0A0E0B0E004C08FE3EB
:1009400090E0A0E0B0E0E80EF91E0A1F1B1F17FFA1
:1009500005C016950795F794E794319687E01695AC
:100960000795F794E7948A95D1F705C0EE24FF2404
:100970008701EFEFF0E06E2F679566276795902F60
:100980009F77D794DD24D7948E2F8695492F462BB9
:10099000582F5D29B701CA011F910F91FF90EF9069
:1009A000DF900895FC01DB01408151812281622F9B
:1009B0006F7770E0221F2227221F9381892F880FD3
:1009C000822B282F30E0991F9927991F11969C930D
:1009D000119721153105A9F54115510561057105DD
:1009E00011F482E037C082E89FEF13969C938E93B8
:1009F00012979A01AB0167E0220F331F441F551F66
:100A00006A95D1F783E08C930DC0220F331F441FEA
:100A1000551F12968D919C911397019713969C9355
:100A20008E931297203080E0380780E0480780E4FA
:100A3000580758F314962D933D934D935C93179755
:100A400008952F3F310579F4411551056105710570
:100A500019F484E08C93089564FF03C081E08C93C3
:100A600012C01C9210C02F57304013963C932E9307
:100A7000129783E08C9387E0440F551F661F771F02
:100A80008A95D1F7706414964D935D936D937C9322
:100A9000179708951F93DC01FB019C91923008F495
:100AA00047C08081823008F443C0943051F41196DD
:100AB0001C91843099F58181682F70E0611B710968
:100AC0003FC0843021F0923031F48230B9F181811D
:100AD000882389F12DC011961C9111978230F1F075
:100AE00081811817D9F412962D913C911397828128
:100AF00093818217930794F028173907BCF0149656
:100B00008D919D910D90BC91A02D248135814681C0
:100B10005781281739074A075B0718F4112341F05A
:100B20000AC082179307A407B50740F4112319F0F0
:100B300061E070E005C06FEF7FEF02C060E070E041
:100B4000CB011F910895DF93CF93CDB7DEB7A0E41B
:100B5000B0E0E0E4F0E0808180688C93A0E4B0E055
:100B6000E0E4F0E080818F7B8C93A0E4B0E0E0E4EF
:100B7000F0E080818E7F8C93ABE2B0E0EBE2F0E0BE
:100B8000808182608C93A0E4B0E0E0E4F0E08081BA
:100B900080688C93A0E4B0E0E0E4F0E080818260C3
:100BA0008C93A0E4B0E0E0E4F0E0808184608C937A
:100BB000AAE2B0E0EAE2F0E080818B7F8C93A0E4CF
:100BC000B0E0E0E4F0E080818F7E8C93A0E4B0E0C0
:100BD000E0E4F0E080818F7D8C93A0E4B0E0E0E47D
:100BE000F0E0808188608C93A0E4B0E0E0E4F0E085
:100BF00080818F778C93E0E4F0E01082E9E2F0E00E
:100C00008FEC8083AAE2B0E0EAE2F0E080818860C5
:100C10008C93AAE2B0E0EAE2F0E0808180618C93FC
:100C2000CF91DF910895DF93CF930F92CDB7DEB7C9
:100C30008983EBE2F0E08081829586958770882F2A
:100C400090E0817090700097A1F3ECE2F0E0898170
:100C500080830F90CF91DF910895DF93CF93CDB72D
:100C6000DEB7EBE2F0E080818823DCF7ECE2F0E035
:100C70008081CF91DF910895DF93CF930F92CDB70D
:100C8000DEB78983EBE2F0E08081829586958770FC
:100C9000882F90E0817090700097A1F3ECE2F0E073
:100CA00089818083EBE2F0E080818823DCF7ECE24D
:100CB000F0E080810F90CF91DF910895DF93CF9383
:100CC0000F92CDB7DEB78983ECE2F0E089818083B3
:100CD0000F90CF91DF910895DF93CF93CDB7DEB71B
:100CE000ECE2F0E08081CF91DF910895DF93CF9324
:100CF00000D00F92CDB7DEB79B838A8319820EC0D6
:100D00008981282F30E08A819B81FC01E20FF31F4B
:100D100080810E94130689818F5F89838981282FB2
:100D200030E08A819B81FC01E20FF31F80818823E0
:100D300039F70F900F900F90CF91DF9108950F9397
:100D40001F93DF93CF9300D00F92CDB7DEB79B8375
:100D50008A8319820FC08981282F30E08A819B8184
:100D60008C01020F131F0E942D06F80180838981D8
:100D70008F5F89838981282F30E08A819B81FC01E4
:100D8000E20FF31F8081882331F70F900F900F90AF
:100D9000CF91DF911F910F910895DF93CF9300D0F2
:100DA000CDB7DEB79A83898389819A81009731F024
:100DB00089819A819093AB008093AA000F900F9045
:100DC000CF91DF910895DF93CF9300D0CDB7DEB7F9
:100DD0009A83898389819A81009731F089819A81E8
:100DE0009093AF008093AE000F900F90CF91DF9162
:100DF0000895DF93CF9300D0CDB7DEB79A83898370
:100E000089819A81009731F089819A819093AD0010
:100E10008093AC000F900F90CF91DF910895DF93F6
:100E2000CF93CDB7DEB7AAE2B0E0EAE2F0E080818E
:100E300080688C93CF91DF910895DF93CF93CDB7E6
:100E4000DEB7AAE2B0E0EAE2F0E080818F778C932F
:100E5000CF91DF910895DF93CF93CDB7DEB7AAE2AC
:100E6000B0E0EAE2F0E0808180648C93CF91DF9182
:100E70000895DF93CF93CDB7DEB7AAE2B0E0EAE200
:100E8000F0E080818F7B8C93CF91DF910895DF9389
:100E9000CF93CDB7DEB7AAE2B0E0EAE2F0E080811E
:100EA00080628C93CF91DF910895DF93CF93CDB77C
:100EB000DEB7AAE2B0E0EAE2F0E080818F7D8C93B9
:100EC000CF91DF9108951F920F920FB60F921124C8
:100ED0002F933F934F935F936F937F938F939F9342
:100EE000AF93BF93EF93FF93DF93CF93CDB7DEB76D
:100EF0008091AA009091AB00009729F0E091AA00A0
:100F0000F091AB000995CF91DF91FF91EF91BF91E7
:100F1000AF919F918F917F916F915F914F913F9191
:100F20002F910F900FBE0F901F9018951F920F9248
:100F30000FB60F9211242F933F934F935F936F93AC
:100F40007F938F939F93AF93BF93EF93FF93DF9321
:100F5000CF93CDB7DEB78091AC009091AD000097F4
:100F600029F0E091AC00F091AD000995CF91DF91AF
:100F7000FF91EF91BF91AF919F918F917F916F9171
:100F80005F914F913F912F910F900FBE0F901F9047
:100F900018951F920F920FB60F9211242F933F9323
:100FA0004F935F936F937F938F939F93AF93BF9371
:100FB000EF93FF93DF93CF93CDB7DEB78091AE0071
:100FC0009091AF00009729F0E091AE00F091AF0052
:100FD0000995CF91DF91FF91EF91BF91AF919F91D3
:100FE0008F917F916F915F914F913F912F910F90D2
:100FF0000FBE0F901F901895DF93CF93CDB7DEB73C
:10100000EAE3F0E08FEF8083E7E3F0E08FEF8083A7
:10101000E4E3F0E08FEF8083E1E3F0E08EEF8083A4
:10102000EBE3F0E01082E8E3F0E080E18083E5E3C9
:10103000F0E01082E2E3F0E01082CF91DF910895BA
:10104000DF93CF93CDB7DEB7AFE5B0E0EFE5F0E0EB
:10105000808180688C93CF91DF910895DF93CF9347
:10106000CDB7DEB7AFE5B0E0EFE5F0E080818F7798
:101070008C93CF91DF910895DF93CF9300D000D070
:1010800000D0CDB7DEB78A836B834C8319828A8107
:10109000282F30E03E832D838D819E818130910504
:1010A00009F449C02D813E81223031052CF48D8117
:1010B0009E81009771F0D4C02D813E812230310590
:1010C00009F46BC08D819E818330910509F497C02E
:1010D000C7C08C818130A1F4ABE3B0E0EBE3F0E07A
:1010E0008081482F8B81282F30E081E090E0022E14
:1010F00002C0880F991F0A94E2F7842B8C93B0C02A
:101100008C818823A9F4ABE3B0E0EBE3F0E08081CD
:10111000482F8B81282F30E081E090E0022E02C022
:10112000880F991F0A94E2F7809584238C9398C0C6
:1011300081E0898395C08C818130A1F4A8E3B0E07F
:10114000E8E3F0E08081482F8B81282F30E081E0B8
:1011500090E0022E02C0880F991F0A94E2F7842BB8
:101160008C937EC08C818823A9F4A8E3B0E0E8E3E7
:10117000F0E08081482F8B81282F30E081E090E0E3
:10118000022E02C0880F991F0A94E2F780958423EB
:101190008C9366C081E0898363C08C818130A1F427
:1011A000A5E3B0E0E5E3F0E08081482F8B81282FB4
:1011B00030E081E090E0022E02C0880F991F0A946F
:1011C000E2F7842B8C934CC08C818823A9F4A5E38F
:1011D000B0E0E5E3F0E08081482F8B81282F30E0FC
:1011E00081E090E0022E02C0880F991F0A94E2F776
:1011F000809584238C9334C081E0898331C08C81B5
:101200008130A1F4A2E3B0E0E2E3F0E08081482F76
:101210008B81282F30E081E090E0022E02C0880F01
:10122000991F0A94E2F7842B8C931AC08C8188232F
:10123000A9F4A2E3B0E0E2E3F0E08081482F8B81E3
:10124000282F30E081E090E0022E02C0880F991F25
:101250000A94E2F7809584238C9302C081E089830D
:10126000898126960FB6F894DEBF0FBECDBFCF9111
:10127000DF910895DF93CF9300D000D00F92CDB7C8
:10128000DEB78A836B8319828A81843098F58A81DC
:10129000282F30E03D832C838C819D818130910506
:1012A000D1F02C813D81223031052CF48C819D813F
:1012B000009761F021C02C813D812230310581F001
:1012C0008C819D818330910581F016C0EBE3F0E0C5
:1012D0008B81808311C0E8E3F0E08B8180830CC0B8
:1012E000E5E3F0E08B81808307C0E2E3F0E08B81EF
:1012F000808302C081E0898389810F900F900F90D5
:101300000F900F90CF91DF910895DF93CF93CDB7DA
:10131000DEB727970FB6F894DEBF0FBECDBF898327
:101320006A835C834B838981282F30E03F832E833F
:101330004E815F814130510559F18E819F8182300C
:10134000910534F42E813F812115310569F05CC08F
:101350004E815F814230510579F18E819F818330CA
:10136000910509F43DC050C0E9E3F0E08081282FE9
:1013700030E08A81882F90E0A90102C055954795F9
:101380008A95E2F7CA018170EB81FC8180833EC0BF
:10139000E6E3F0E08081282F30E08A81882F90E01A
:1013A000A90102C0559547958A95E2F7CA01817057
:1013B000EB81FC8180832AC0E3E3F0E08081282F69
:1013C00030E08A81882F90E0A90102C055954795A9
:1013D0008A95E2F7CA018170EB81FC81808316C097
:1013E000E0E3F0E08081282F30E08A81882F90E0D0
:1013F000A90102C0559547958A95E2F7CA01817007
:10140000EB81FC81808302C01D8202C051E05D83BC
:101410008D8127960FB6F894DEBF0FBECDBFCF915A
:10142000DF910895DF93CF930F92CDB7DEB7898315
:10143000EBE3F0E0898180830F90CF91DF910895F5
:101440000F931F93DF93CF93CDB7DEB7CC58D04027
:101450000FB6F894DEBF0FBECDBFFE01E757FF4FBA
:1014600080E090E0ACE0B2E480839183A283B38318
:101470008E010B571F4FFE01E757FF4F60817181AF
:101480008281938120E030E04AE755E40E941F0208
:10149000DC01CB01F80180839183A283B383FE0139
:1014A000EB57FF4F608171818281938120E030E0B2
:1014B00040E85FE30E947903882344F4FE01ED577E
:1014C000FF4F81E090E09183808364C0FE01EB5781
:1014D000FF4F608171818281938120E03FEF4FE770
:1014E00057E40E94190318160CF043C0FE01E75799
:1014F000FF4F608171818281938120E030E040E282
:1015000051E40E941F02DC01CB018E010D571F4FD9
:10151000BC01CD010E944900DC01CB01F80191839F
:1015200080831FC0FE01EF57FF4F80E991E0918358
:101530008083FE01EF57FF4F808191810197F1F782
:10154000FE01EF57FF4F91838083DE01AD57BF4F00
:10155000FE01ED57FF4F80819181019711969C9379
:101560008E93FE01ED57FF4F808191810097D1F658
:1015700027C08E010D571F4FFE01EB57FF4F6081B3
:101580007181828193810E944900DC01CB01F801C5
:1015900091838083DE01A158BF4FFE01ED57FF4FBD
:1015A000808191818D939C93FE01E158FF4F808152
:1015B00091810197F1F7FE01E158FF4F91838083FC
:1015C00080E30E941011FE01E558FF4F80E090E09B
:1015D000A0EAB0E480839183A283B3838E0109588B
:1015E0001F4FFE01E558FF4F608171818281938119
:1015F00020E030E04AE755E40E941F02DC01CB0105
:10160000F80180839183A283B383FE01E958FF4FE1
:10161000608171818281938120E030E040E85FE366
:101620000E947903882344F4FE01EB58FF4F81E0C8
:1016300090E09183808364C0FE01E958FF4F608190
:1016400071818281938120E03FEF4FE757E40E9450
:10165000190318160CF043C0FE01E558FF4F6081D6
:1016600071818281938120E030E040E251E40E9468
:101670001F02DC01CB018E010B581F4FBC01CD01B5
:101680000E944900DC01CB01F801918380831FC0D7
:10169000FE01ED58FF4F80E991E091838083FE01C8
:1016A000ED58FF4F808191810197F1F7FE01ED58D0
:1016B000FF4F91838083DE01AB58BF4FFE01EB5893
:1016C000FF4F80819181019711969C938E93FE012B
:1016D000EB58FF4F808191810097D1F627C08E0192
:1016E0000B581F4FFE01E958FF4F608171818281C5
:1016F00093810E944900DC01CB01F8019183808332
:10170000DE01AF58BF4FFE01EB58FF4F8081918142
:101710008D939C93FE01EF58FF4F8081918101973B
:10172000F1F7FE01EF58FF4F9183808380E30E9421
:101730001011FE01E359FF4F80E090E0A0E8BFE305
:1017400080839183A283B3838E0107591F4FFE01CB
:10175000E359FF4F608171818281938120E030E005
:101760004AE755E40E941F02DC01CB01F8018083A7
:101770009183A283B383FE01E759FF4F608171819A
:101780008281938120E030E040E85FE30E947903AA
:10179000882344F4FE01E959FF4F81E090E09183F2
:1017A000808364C0FE01E759FF4F608171818281AF
:1017B000938120E03FEF4FE757E40E94190318168A
:1017C0000CF043C0FE01E359FF4F608171818281BB
:1017D000938120E030E040E251E40E941F02DC01EE
:1017E000CB018E0109591F4FBC01CD010E94490058
:1017F000DC01CB01F801918380831FC0FE01EB590E
:10180000FF4F80E991E091838083FE01EB59FF4F08
:10181000808191810197F1F7FE01EB59FF4F918390
:101820008083DE01A959BF4FFE01E959FF4F808136
:101830009181019711969C938E93FE01E959FF4F78
:10184000808191810097D1F627C08E0109591F4FE1
:10185000FE01E759FF4F60817181828193810E946F
:101860004900DC01CB01F80191838083DE01AD5991
:10187000BF4FFE01E959FF4F808191818D939C9369
:10188000FE01ED59FF4F808191810197F1F7FE0133
:10189000ED59FF4F9183808380E30E941011FE0178
:1018A000E15AFF4F80E090E0A0E8BFE3808391839E
:1018B000A283B3838E01055A1F4FFE01E15AFF4FE9
:1018C000608171818281938120E030E04AE755E4B4
:1018D0000E941F02DC01CB01F80180839183A28367
:1018E000B383FE01E55AFF4F60817181828193814C
:1018F00020E030E040E85FE30E947903882344F46D
:10190000FE01E75AFF4F81E090E09183808364C03D
:10191000FE01E55AFF4F608171818281938120E051
:101920003FEF4FE757E40E94190318160CF043C02D
:10193000FE01E15AFF4F608171818281938120E035
:1019400030E040E251E40E941F02DC01CB018E0135
:10195000075A1F4FBC01CD010E944900DC01CB0199
:10196000F801918380831FC0FE01E95AFF4F80E98F
:1019700091E091838083FE01E95AFF4F808191813C
:101980000197F1F7FE01E95AFF4F91838083DE0151
:10199000A75ABF4FFE01E75AFF4F808191810197FF
:1019A00011969C938E93FE01E75AFF4F808191819F
:1019B0000097D1F627C08E01075A1F4FFE01E55A46
:1019C000FF4F60817181828193810E944900DC0117
:1019D000CB01F80191838083DE01AB5ABF4FFE013A
:1019E000E75AFF4F808191818D939C93FE01EB5AC2
:1019F000FF4F808191810197F1F7FE01EB5AFF4F74
:101A00009183808380E20E941011FE01EF5AFF4F04
:101A100080E090E0A0E8BFE380839183A283B3835A
:101A20008E01035B1F4FFE01EF5AFF4F60817181F2
:101A30008281938120E030E04AE755E40E941F0252
:101A4000DC01CB01F80180839183A283B383FE0183
:101A5000E35BFF4F608171818281938120E030E000
:101A600040E85FE30E947903882344F4FE01E55BCC
:101A7000FF4F81E090E09183808364C0FE01E35BCF
:101A8000FF4F608171818281938120E03FEF4FE7BA
:101A900057E40E94190318160CF043C0FE01EF5AD8
:101AA000FF4F608171818281938120E030E040E2CC
:101AB00051E40E941F02DC01CB018E01055B1F4F28
:101AC000BC01CD010E944900DC01CB01F8019183EA
:101AD00080831FC0FE01E75BFF4F80E991E09183A7
:101AE0008083FE01E75BFF4F808191810197F1F7D1
:101AF000FE01E75BFF4F91838083DE01A55BBF4F53
:101B0000FE01E55BFF4F80819181019711969C93C7
:101B10008E93FE01E55BFF4F808191810097D1F6A6
:101B200027C08E01055B1F4FFE01E35BFF4F608105
:101B30007181828193810E944900DC01CB01F8010F
:101B400091838083DE01A95BBF4FFE01E55BFF4F00
:101B5000808191818D939C93FE01E95BFF4F808191
:101B600091810197F1F7FE01E95BFF4F918380833B
:101B700088E20E942010FE01ED5BFF4F80E090E0C4
:101B8000A0E8BFE380839183A283B3838E01015CCD
:101B90001F4FFE01ED5BFF4F608171818281938158
:101BA00020E030E04AE755E40E941F02DC01CB014F
:101BB000F80180839183A283B383FE01FF96608145
:101BC00071818281938120E030E040E85FE30E94F0
:101BD000790388232CF481E090E09EAF8DAF46C05E
:101BE000FE01FF96608171818281938120E03FEF49
:101BF0004FE757E40E941903181664F5FE01ED5BE8
:101C0000FF4F608171818281938120E030E040E26A
:101C100051E40E941F02DC01CB01BC01CD010E94F6
:101C20004900DC01CB019EAF8DAF0FC080E991E090
:101C30009CAF8BAF8BAD9CAD0197F1F79CAF8BAF99
:101C40008DAD9EAD01979EAF8DAF8DAD9EAD0097D2
:101C500069F716C0FE01FF966081718182819381D0
:101C60000E944900DC01CB019EAF8DAF8DAD9EADD2
:101C70009AAF89AF89AD9AAD0197F1F79AAF89AF65
:101C800088E00E94201080E090E0A0E8BFE38DABE8
:101C90009EABAFABB8AF6DA97EA98FA998AD20E080
:101CA00030E04AE755E40E941F02DC01CB0189AB1A
:101CB0009AABABABBCAB69A97AA98BA99CA920E074
:101CC00030E040E85FE30E94790388232CF481E050
:101CD00090E098AB8FA73FC069A97AA98BA99CA96E
:101CE00020E03FEF4FE757E40E94190318164CF528
:101CF0006DA97EA98FA998AD20E030E040E251E4C3
:101D00000E941F02DC01CB01BC01CD010E944900F1
:101D1000DC01CB0198AB8FA70FC080E991E09EA7B3
:101D20008DA78DA59EA50197F1F79EA78DA78FA5DD
:101D300098A9019798AB8FA78FA598A9009769F7E5
:101D400014C069A97AA98BA99CA90E944900DC0149
:101D5000CB0198AB8FA78FA598A99CA78BA78BA524
:101D60009CA50197F1F79CA78BA781E00E9420100A
:101D700080E090E0A0EAB0E48FA398A7A9A7BAA753
:101D80006FA178A589A59AA520E030E04AE755E43F
:101D90000E941F02DC01CB018BA39CA3ADA3BEA3B9
:101DA0006BA17CA18DA19EA120E030E040E85FE323
:101DB0000E94790388232CF481E090E09AA389A300
:101DC0003FC06BA17CA18DA19EA120E03FEF4FE71A
:101DD00057E40E94190318164CF56FA178A589A540
:101DE0009AA520E030E040E251E40E941F02DC01AD
:101DF000CB01BC01CD010E944900DC01CB019AA3BB
:101E000089A30FC080E991E098A38F8F8F8D98A14F
:101E10000197F1F798A38F8F89A19AA101979AA3AF
:101E200089A389A19AA1009769F714C06BA17CA12D
:101E30008DA19EA10E944900DC01CB019AA389A338
:101E400089A19AA19E8F8D8F8D8D9E8D0197F1F71F
:101E50009E8F8D8F8CE00E94201080E090E0A0E8A3
:101E6000BFE3898F9A8FAB8FBC8F698D7A8D8B8DF5
:101E70009C8D20E030E04AE755E40E941F02DC011F
:101E8000CB018D8B9E8BAF8BB88F6D897E898F89AF
:101E9000988D20E030E040E85FE30E9479038823DA
:101EA0002CF481E090E09C8B8B8B3FC06D897E8908
:101EB0008F89988D20E03FEF4FE757E40E94190388
:101EC00018164CF5698D7A8D8B8D9C8D20E030E055
:101ED00040E251E40E941F02DC01CB01BC01CD01B4
:101EE0000E944900DC01CB019C8B8B8B0FC080E9E9
:101EF00091E09A8B898B89899A890197F1F79A8B5E
:101F0000898B8B899C8901979C8B8B8B8B899C8976
:101F1000009769F714C06D897E898F89988D0E941A
:101F20004900DC01CB019C8B8B8B8B899C89988B26
:101F30008F878F8598890197F1F7988B8F8786E037
:101F40000E94201080E090E0A0E8BFE38B879C8790
:101F5000AD87BE876B857C858D859E8520E030E0D2
:101F60004AE755E40E941F02DC01CB018F8398876A
:101F7000A987BA876F81788589859A8520E030E0C6
:101F800040E85FE30E94790388232CF481E090E02D
:101F90009E838D833FC06F81788589859A8520E0F7
:101FA0003FEF4FE757E40E94190318164CF56B8575
:101FB0007C858D859E8520E030E040E251E40E94E2
:101FC0001F02DC01CB01BC01CD010E944900DC01F4
:101FD000CB019E838D830FC080E991E09C838B832E
:101FE0008B819C810197F1F79C838B838D819E81EE
:101FF00001979E838D838D819E81009769F714C020
:102000006F81788589859A850E944900DC01CB0122
:102010009E838D838D819E819A83898389819A8114
:102020000197F1F79A838983C457DF4F0FB6F8946D
:10203000DEBF0FBECDBFCF91DF911F910F910895ED
:10204000DF93CF93CDB7DEB72F970FB6F894DEBFEF
:102050000FBECDBF8F8780E063E040E00E943C0868
:1020600080E062E041E00E943C088F8582958F709D
:10207000982F917081E060E0492F0E943C088F8585
:10208000829586958770982F917081E061E0492F45
:102090000E943C088F858295869586958370982F3F
:1020A000917081E062E0492F0E943C088F85982F53
:1020B000991F9927991F81E064E0492F0E943C08ED
:1020C00080E062E040E00E943C0880E062E041E0A5
:1020D0000E943C088F85982F917081E060E0492F25
:1020E0000E943C088F858695982F917081E061E071
:1020F000492F0E943C088F8586958695982F917070
:1021000081E062E0492F0E943C088F858695869584
:102110008695982F917081E064E0492F0E943C08D9
:1021200080E062E040E00E943C0880E090E0A0EAAD
:10213000B0E48B879C87AD87BE876B857C858D855A
:102140009E8520E030E04AE755E40E941F02DC0152
:10215000CB018F839887A987BA876F817885898516
:102160009A8520E030E040E85FE30E94790388230D
:102170002CF481E090E09E838D833FC06F81788551
:1021800089859A8520E03FEF4FE757E40E941903C5
:1021900018164CF56B857C858D859E8520E030E09A
:1021A00040E251E40E941F02DC01CB01BC01CD01E1
:1021B0000E944900DC01CB019E838D830FC080E922
:1021C00091E09C838B838B819C810197F1F79C83A9
:1021D0008B838D819E8101979E838D838D819E81CE
:1021E000009769F714C06F81788589859A850E9468
:1021F0004900DC01CB019E838D838D819E819A8372
:10220000898389819A810197F1F79A8389832F962F
:102210000FB6F894DEBF0FBECDBFCF91DF9108950A
:10222000DF93CF93CDB7DEB72F970FB6F894DEBF0D
:102230000FBECDBF8F8780E063E040E00E943C0886
:1022400080E062E041E00E943C088F8582958F70BB
:10225000982F917081E060E0492F0E943C088F85A3
:10226000829586958770982F917081E061E0492F63
:102270000E943C088F858295869586958370982F5D
:10228000917081E062E0492F0E943C088F85982F71
:10229000991F9927991F81E064E0492F0E943C080B
:1022A00080E062E040E00E943C0880E090E0A0EA2C
:1022B000B0E48B879C87AD87BE876B857C858D85D9
:1022C0009E8520E030E04AE755E40E941F02DC01D1
:1022D000CB018F839887A987BA876F817885898595
:1022E0009A8520E030E040E85FE30E94790388238C
:1022F0002CF481E090E09E838D833FC06F817885D0
:1023000089859A8520E03FEF4FE757E40E94190343
:1023100018164CF56B857C858D859E8520E030E018
:1023200040E251E40E941F02DC01CB01BC01CD015F
:102330000E944900DC01CB019E838D830FC080E9A0
:1023400091E09C838B838B819C810197F1F79C8327
:102350008B838D819E8101979E838D838D819E814C
:10236000009769F714C06F81788589859A850E94E6
:102370004900DC01CB019E838D838D819E819A83F0
:10238000898389819A810197F1F79A8389832F96AE
:102390000FB6F894DEBF0FBECDBFCF91DF91089589
:1023A000DF93CF93CDB7DEB72F970FB6F894DEBF8C
:1023B0000FBECDBF8F8780E063E041E00E943C0804
:1023C00080E062E041E00E943C088F8582958F703A
:1023D000982F917081E060E0492F0E943C088F8522
:1023E000829586958770982F917081E061E0492FE2
:1023F0000E943C088F858295869586958370982FDC
:10240000917081E062E0492F0E943C088F85982FEF
:10241000991F9927991F81E064E0492F0E943C0889
:1024200080E062E040E00E943C0880E062E041E041
:102430000E943C088F85982F917081E060E0492FC1
:102440000E943C088F858695982F917081E061E00D
:10245000492F0E943C088F8586958695982F91700C
:1024600081E062E0492F0E943C088F858695869521
:102470008695982F917081E064E0492F0E943C0876
:1024800080E062E040E00E943C0880E090E0A0EA4A
:10249000B0E48B879C87AD87BE876B857C858D85F7
:1024A0009E8520E030E04AE755E40E941F02DC01EF
:1024B000CB018F839887A987BA876F8178858985B3
:1024C0009A8520E030E040E85FE30E9479038823AA
:1024D0002CF481E090E09E838D833FC06F817885EE
:1024E00089859A8520E03FEF4FE757E40E94190362
:1024F00018164CF56B857C858D859E8520E030E037
:1025000040E251E40E941F02DC01CB01BC01CD017D
:102510000E944900DC01CB019E838D830FC080E9BE
:1025200091E09C838B838B819C810197F1F79C8345
:102530008B838D819E8101979E838D838D819E816A
:10254000009769F714C06F81788589859A850E9404
:102550004900DC01CB019E838D838D819E819A830E
:10256000898389819A810197F1F79A8389832F96CC
:102570000FB6F894DEBF0FBECDBFCF91DF910895A7
:10258000DF93CF9300D00F92CDB7DEB79B838A83C2
:1025900019820EC08981282F30E08A819B81FC013D
:1025A000E20FF31F80810E94D01189818F5F8983A0
:1025B0008981282F30E08A819B81FC01E20FF31F83
:1025C0008081882339F70F900F900F90CF91DF9182
:1025D0000895DF93CF93CDB7DEB76A970FB6F8941F
:1025E000DEBF0FBECDBF6F8B788F898F9A8F8F899B
:1025F000988DA98DBA8D0097A105B10599F08F89A5
:10260000988DA98DBA8D9E012D5F3F4FBC01CD01E4
:10261000A9010E9493149A83898389819A810E94D7
:10262000C01203C080E30E94D0116A960FB6F894DE
:10263000DEBF0FBECDBFCF91DF910895DF93CF9363
:10264000CDB7DEB7A6970FB6F894DEBF0FBECDBFED
:102650006BA37CA38DA39EA36BA17CA18DA19EA146
:1026600020E030E048EC52E40E941F02DC01CB0184
:10267000BC01CD010E94A903DC01CB018B879C87A3
:10268000AD87BE878B859C85AD85BE859E01215F0C
:102690003F4FBC01CD01A9010E9493149A878987FD
:1026A0001D821E821F82188619821A821B821C823A
:1026B0000BC08D819E81AF81B8850196A11DB11D92
:1026C0008D839E83AF83B8872D813E8189859A85CE
:1026D000FC01E20FF31F8081882359F78D819E81D1
:1026E000AF81B8850297A109B1098D839E83AF831D
:1026F000B8878D819E81AF81B8850097A105B1050E
:1027000049F580E30E94D01125C029813A814B818F
:102710005C818D819E81AF81B885281739074A0772
:102720005B0719F48EE20E94D01129813A818985D4
:102730009A85FC01E20FF31F80810E94D0118981EC
:102740009A81AB81BC810196A11DB11D89839A83B9
:10275000AB83BC8329813A8189859A85FC01E20F8C
:10276000F31F8081882389F6A6960FB6F894DEBF02
:102770000FBECDBFCF91DF910895DF93CF9300D0EF
:102780000F92CDB7DEB78A836B8380E889838A8115
:10279000882321F48B818058898314C08A818130F9
:1027A00021F48B81805489830DC08A81823021F489
:1027B0008B818C56898306C08A81833019F48B8182
:1027C0008C52898389818068898389810E94201045
:1027D0000F900F900F90CF91DF910895DF93CF93DB
:1027E00000D0CDB7DEB789836A8389816A810E9470
:1027F000BD1380E20E94D0110F900F90CF91DF9116
:102800000895DF93CF9300D00F92CDB7DEB78A83C0
:102810006B8319820AC08A8169810E94BD1380E29C
:102820000E94D01189818F5F898399818B8189175B
:1028300090F70F900F900F90CF91DF910895DF9355
:10284000CF93CDB7DEB727970FB6F894DEBF0FBE94
:10285000CDBF9C838B836D834E832F838E816F814D
:102860000E94BD138D810E94D0111A8219828D8120
:10287000883030F58D81882F90E0880F991F880F60
:10288000991F880F991F8A838A8180648A838A812D
:102890008F778A838A810E94201019820EC08981D5
:1028A000282F30E08B819C81FC01E20FF31F808197
:1028B0000E94D01189818F5F89838981883078F364
:1028C00082E00E94201027960FB6F894DEBF0FBE5C
:1028D000CDBFCF91DF910895DF93CF9300D00F92BA
:1028E000CDB7DEB78A836B830E947017AC018B81F2
:1028F000282F30E08A81882F90E0B901681B790B7E
:10290000CB019C012F5F3F4FCA01B9010E94841681
:10291000982F8A81890F898389810F900F900F905A
:10292000CF91DF9108950F931F93DF93CF93CDB78E
:10293000DEB72E970FB6F894DEBF0FBECDBF698706
:102940007A878B879C875E874D871D821E821F82B8
:10295000188683E190E0A0E0B0E089839A83AB839E
:10296000BC8329813A818D859E85FC01E20FF31F8E
:10297000108289819A81AB81BC810197A109B1093B
:1029800089839A83AB83BC8389859A85AB85BC8513
:10299000BB230CF04DC081E090E0A0E0B0E08D835F
:1029A0009E83AF83B88789859A85AB85BC85B095B2
:1029B000A095909581959F4FAF4FBF4F89879A877C
:1029C000AB87BC8735C029813A818D859E858C0176
:1029D000020F131F89859A85AB85BC852AE030E0FC
:1029E00040E050E0BC01CD010E949716DC01CB0114
:1029F000805DF801808389819A81AB81BC810197D8
:102A0000A109B10989839A83AB83BC8389859A859F
:102A1000AB85BC852AE030E040E050E0BC01CD0150
:102A20000E949716DA01C90189879A87AB87BC870C
:102A300089859A85AB85BC850097A105B10519F6F6
:102A40008D819E81AF81B8850097A105B105A1F068
:102A500029813A818D859E85FC01E20FF31F8DE26D
:102A6000808389819A81AB81BC810197A109B109D9
:102A700089839A83AB83BC8389819A81AB81BC8132
:102A80000196A11DB11D89839A83AB83BC832981E3
:102A90003A818D859E85820F931F2E960FB6F894EE
:102AA000DEBF0FBECDBFCF91DF911F910F91089573
:102AB0000F931F93DF93CF9300D000D000D0CDB7FA
:102AC000DEB70E94FC070E94200A0E94200884E4CE
:102AD00096E10E94CD060E94A3050E940F0781E0A7
:102AE0006AEF0E946C14082F10E081E06AEF0E94E8
:102AF0006C14882F90E09C01029FC001039F900DF1
:102B0000129F900D1124AA2797FDA095BA2F855FDB
:102B10009D42AA4FBA4F8B839C83AD83BE83809125
:102B2000B1008130E1F61092B10083EB90E020E635
:102B300030E0B90144E050E00E948017009709F0AE
:102B400047C08B819C81AD81BE8121ED30E0BC010D
:102B5000CD01A9010E9493149C0186E990E0B9017E
:102B60000E948D1786E990E00E94C01284E08A835B
:102B700021C08A81882F90E09C01245030408A81B6
:102B8000882F90E0FC01EA56FF4F80818053482F48
:102B90008A81882F90E00497FC01E357FF4F8081E2
:102BA00080538427805DF901E853FF4F80838A8139
:102BB0008F5F8A838A818C30E0F21092D00082E0AD
:102BC00060E00E94BD1388EC90E00E94C01257C0E4
:102BD00083EB90E025E630E0B90148E050E00E9448
:102BE0008017009799F48091B200813051F48EE6FD
:102BF00090E00E94C01282E060E041E00E943C0848
:102C00003EC082EA90E00E94C01239C083EB90E09F
:102C100027E730E0B90144E050E00E9480170097B8
:102C200071F584E0898318C08981882F90E004972A
:102C3000FC01E853FF4F20818981882F90E0FC013F
:102C4000ED54FF4F8081281721F081E08093C70069
:102C500006C089818F5F898389818C3028F38091B8
:102C6000C700882341F48CE790E00E94C01281E005
:102C70008093B20004C08BE990E00E94C0121092D1
:102C8000B0000E940F072BCFDF93CF930F92CDB7E9
:102C9000DEB719820E946C06898389818D3089F4A0
:102CA0008091B000882F90E0FC01ED54FF4F10821E
:102CB00081E08093B1000E941D0781E00E942010F6
:102CC0001FC08981883071F48091B0008150809359
:102CD000B0008091B000882F90E0FC01ED54FF4FD0
:102CE00010820EC08091B000882F90E0FC01ED545E
:102CF000FF4F898180838091B0008F5F8093B00007
:102D00000F90CF91DF91089597FB092E07260AD0E7
:102D100077FD04D027D006D000201AF47095619575
:102D20007F4F0895F6F7909581959F4F089597FBF3
:102D3000092E05260ED057FD04D028D00AD0001C3D
:102D400038F450954095309521953F4F4F4F5F4F48
:102D50000895F6F790958095709561957F4F8F4F08
:102D60009F4F0895AA1BBB1B51E107C0AA1FBB1FA1
:102D7000A617B70710F0A61BB70B881F991F5A9507
:102D8000A9F780959095BC01CD010895A1E21A2E76
:102D9000AA1BBB1BFD010DC0AA1FBB1FEE1FFF1FFF
:102DA000A217B307E407F50720F0A21BB30BE40B4F
:102DB000F50B661F771F881F991F1A9469F7609596
:102DC0007095809590959B01AC01BD01CF01089550
:102DD0002F923F924F925F926F927F928F929F922B
:102DE000AF92BF92CF92DF92EF92FF920F931F9319
:102DF000CF93DF93CDB7DEB7CA1BDB0B0FB6F894CA
:102E0000DEBF0FBECDBF09942A88398848885F8409
:102E10006E847D848C849B84AA84B984C884DF807A
:102E2000EE80FD800C811B81AA81B981CE0FD11D5E
:102E30000FB6F894DEBF0FBECDBFED010895A0E040
:102E4000B0E0E5E2F7E10C94F016EC01A880B9805F
:102E5000CA80DB80A114B104C104D10441F484E22E
:102E6000A82E89EDB82E8BE5C82E87E0D82EC60196
:102E7000B5012DE133EF41E050E00E94971627EABB
:102E800031E440E050E00E9498177B018C01C601BC
:102E9000B5012DE133EF41E050E00E949716CA01E1
:102EA000B9012CEE34EF4FEF5FEF0E9498176E0DD3
:102EB0007F1D801F911F97FF04C0615070408040AC
:102EC0009048688379838A839B839B013F77C901FC
:102ED000CDB7DEB7EAE00C940C170E941F170895D7
:102EE00089E890E00E941F170895A0E0B0E0809369
:102EF000890090938A00A0938B00B0938C00089572
:102F0000FB01DC0104C08D910190801921F4415036
:102F10005040C8F7881B990B0895FB01DC010D9008
:102F20000020E9F7119701900D920020E1F7089534
:102F3000629FD001739FF001829FE00DF11D649F9D
:102F4000E00DF11D929FF00D839FF00D749FF00D29
:102F5000659FF00D9927729FB00DE11DF91F639FCA
:102F6000B00DE11DF91FBD01CF0111240895F894A2
:022F7000FFCF91
:102F72003237303100333130314141303000373176
:102F82003031414130300032373032003637303262
:102F9200000000000000000000010000003031309D
:102FA2003130313031003637303100374632373345
:0A2FB2003500374633313335000097
:00000001FF
