S00D00004C65635F342E7372656370
S11300000C942A000C94A3030C94CD030C94F703D2
S11300100C94F3040C94C9040C9447000C949F04AE
S11300200C9447000C9475040C9447000C944B04F6
S11300300C9421040C942D050C9447000C94570542
S11300400C94EA010C9447000C9447000C9447006C
S11300500C94470011241FBECFE5D8E0DEBFCDBF0E
S113006010E0A0E6B0E0E2E6FBE002C005900D92ED
S1130070AE3DB107D9F720E0AEEDB0E001C01D926E
S1130080AC3FB207E1F70E947F010C94AF050C94DA
S11300900000CF93C82F60E083E00E9420036C2F00
S11300A0661F6627661F8CE00E942003C6FB662736
S11300B060F98BE00E942003C5FB662760F989E0A4
S11300C00E942003C4FB662760F988E00E94200395
S11300D061E084E00E9420038FEC97E00197F1F740
S11300E000C0000060E084E00E9420038FEC97E0F1
S11300F00197F1F700C00000C3FB662760F98CE0AC
S11301000E942003C2FB662760F98BE00E94200353
S1130110C1FB662760F989E00E9420036C2F61709F
S113012088E00E94200361E084E00E9420038FECB9
S113013097E00197F1F700C0000060E084E00E94BE
S113014020038FEC97E00197F1F700C00000CF91F6
S11301500895CF93C82F61E083E00E9420036C2FA1
S1130160661F6627661F8CE00E942003C6FB662775
S113017060F98BE00E942003C5FB662760F989E0E3
S11301800E942003C4FB662760F988E00E942003D4
S113019061E084E00E9420038FEC97E00197F1F77F
S11301A000C0000060E084E00E9420038FEC97E030
S11301B00197F1F700C00000C3FB662760F98CE0EB
S11301C00E942003C2FB662760F98BE00E94200393
S11301D0C1FB662760F989E00E9420036C2F6170DF
S11301E088E00E94200361E084E00E9420038FECF9
S11301F097E00197F1F700C0000060E084E00E94FE
S113020020038FEC97E00197F1F700C00000CF9135
S113021008952FE788E391E0215080409040E1F772
S113022000C0000082E00E94490088E20E94490068
S11302308CE00E94490081E00E9449008FEC97E025
S11302400197F1F700C0000086E00E94490008957C
S1130250811105C080E8860F0E944900089581300D
S113026029F480EC860F0E9449000895823029F415
S113027084E9860F0E9449000895833021F484EDB7
S1130280860F0E94490008950E94A90008950F93C3
S11302901F93CF938C01C0E003C00E944401CF5F41
S11302A0F801EC0FF11D80818111F7CFCF911F91DF
S11302B00F91089581E00E9449008FEC97E0019727
S11302C0F1F700C000000895CF93DF93EC01DA0149
S11302D090E010C0292F30E0FE01E20FF31F70817F
S11302E0FD01E20FF31F5081F901E051FF4F572741
S11302F050839F5F961770F3DF91CF9108950E940A
S113030010030E9409010E941D0588EE90E00E94DE
S1130310810548E050E068EE70E088E890E00E94D3
S1130320A205892B91F78091DE00811148C089E7ED
S113033090E00E94470188EF90E00E94810544E02C
S113034050E068EF70E084E890E00E94A205892BF9
S1130350C9F40E945A0180E890E00E94470140E6F7
S113036050E068E088E690E00E94640180EF90E04D
S11303700E94470160E082E00E94280188E690E044
S11303800E94470180EE90E00E94810548E050E021
S113039060EE70E088E690E00E94A205892B51F49B
S11303A00E945A0181E08093DE0088EC90E00E9474
S11303B04701ABCF81ED90E00E944701A6CF0E9498
S11303C05A0180E790E00E94470161E080E10E94C9
S11303D020039BCF1F920F920FB60F9211242F93DD
S11303E03F934F935F936F937F938F939F93AF93B9
S11303F0BF93EF93FF931092DF00E0919000F09190
S113040091000995FF91EF91BF91AF919F918F91C9
S11304107F916F915F914F913F912F910F900FBEFC
S11304200F901F901895982F9770869586958695AE
S1130430613009F455C020F0623009F4A1C0089578
S11304408130C1F028F0823039F18330B9F1089558
S11304504AB321E030E0B90102C0660F771F9A95D4
S1130460E2F7CB01942F982B9ABB9BB380958923F9
S11304708BBB089547B321E030E0B90102C0660F99
S1130480771F9A95E2F7CB01942F982B97BB98B3DB
S11304908095892388BB089544B321E030E0B901F5
S11304A002C0660F771F9A95E2F7CB01942F982B21
S11304B094BB95B38095892385BB089541B321E00E
S11304C030E0B90102C0660F771F9A95E2F7CB01BD
S11304D0942F982B91BB92B38095892382BB089566
S11304E08130C1F028F0823039F18330B9F10895B8
S11304F04AB321E030E0B90102C0660F771F9A9534
S1130500E2F7CB018095942F98239ABB9BB3892360
S11305108BBB089547B321E030E0B90102C0660FF8
S1130520771F9A95E2F7CB018095942F982397BB78
S113053098B3892388BB089544B321E030E0B9011E
S113054002C0660F771F9A95E2F7CB018095942F2E
S1130550982394BB95B3892385BB089541B321E0C7
S113056030E0B90102C0660F771F9A95E2F7CB011C
S11305708095942F982391BB92B3892382BB0895CD
S11305808130C1F028F0823039F18330B9F1089517
S11305904AB321E030E0B90102C0660F771F9A9593
S11305A0E2F7CB01962F909594239ABB9BB3892BAA
S11305B08BBB089547B321E030E0B90102C0660F58
S11305C0771F9A95E2F7CB01962F9095942397BBCA
S11305D098B3892B88BB089544B321E030E0B90176
S11305E002C0660F771F9A95E2F7CB01962F90957C
S11305F0942394BB95B3892B85BB089541B321E023
S113060030E0B90102C0660F771F9A95E2F7CB017B
S1130610962F9095942391BB92B3892B82BB089516
S1130620CF93C0E009C0EC2FF0E0E855FF4F6081A4
S11306308C2F0E941302CF5FC032A8F3CF9108958C
S1130640982F97708695869586956130E1F581306F
S113065099F028F08230E9F0833041F108954BB3EA
S113066021E030E0B90102C0660F771F9A95E2F7E6
S1130670CB01842B8BBB089548B321E030E0B90152
S113068002C0660F771F9A95E2F7CB01842B88BBD3
S1130690089545B321E030E0B90102C0660F771F29
S11306A09A95E2F7CB01842B85BB089542B321E0F0
S11306B030E0B90102C0660F771F9A95E2F7CB01CB
S11306C0842B82BB08958130A1F028F08230F9F0A8
S11306D0833059F108954BB321E030E0B90102C0F1
S11306E0660F771F9A95E2F7CB01809584238BBB25
S11306F0089548B321E030E0B90102C0660F771FC6
S11307009A95E2F7CB018095842388BB089545B37D
S113071021E030E0B90102C0660F771F9A95E2F735
S1130720CB018095842385BB089542B321E030E05A
S1130730B90102C0660F771F9A95E2F7CB01809545
S1130740842382BB08951F920F920FB60F92112437
S11307502F933F934F935F936F937F938F939F93C5
S1130760AF93BF93EF93FF93E0919600F0919700BE
S1130770E230F10509F00995FF91EF91BF91AF9136
S11307809F918F917F916F915F914F913F912F91A5
S11307900F900FBE0F901F9018951F920F920FB6D7
S11307A00F9211242F933F934F935F936F937F93F3
S11307B08F939F93AF93BF93EF93FF93E091940034
S11307C0F0919500E230F10509F00995FF91EF9160
S11307D0BF91AF919F918F917F916F915F914F9155
S11307E03F912F910F900FBE0F901F9018951F925D
S11307F00F920FB60F9211242F933F934F935F9351
S11308006F937F938F939F93AF93BF93EF93FF93D4
S1130810E0919200F0919300E230F10509F009951E
S1130820FF91EF91BF91AF919F918F917F916F91C4
S11308305F914F913F912F910F900FBE0F901F909A
S113084018951F920F920FB60F9211242F933F9376
S11308504F935F936F937F938F939F93AF93BF93C4
S1130860EF93FF93E0919800F0919900E230F10545
S113087009F00995FF91EF91BF91AF919F918F91ED
S11308807F916F915F914F913F912F910F900FBE88
S11308900F901F9018951F920F920FB60F9211246C
S11308A02F933F934F935F936F937F938F939F9374
S11308B0AF93BF93EF93FF93E091A200F091A30055
S11308C0E230F10509F00995FF91EF91BF91AF91E5
S11308D09F918F917F916F915F914F913F912F9154
S11308E00F900FBE0F901F9018951F920F920FB686
S11308F00F9211242F933F934F935F936F937F93A2
S11309008F939F93AF93BF93EF93FF93E091A000D6
S1130910F091A100E230F10509F00995FF91EF9102
S1130920BF91AF919F918F917F916F915F914F9103
S11309303F912F910F900FBE0F901F9018951F920B
S11309400F920FB60F9211242F933F934F935F93FF
S11309506F937F938F939F93AF93BF93EF93FF9383
S1130960E0919E00F0919F00E230F10509F00995B5
S1130970FF91EF91BF91AF919F918F917F916F9173
S11309805F914F913F912F910F900FBE0F901F9049
S113099018951F920F920FB60F9211242F933F9325
S11309A04F935F936F937F938F939F93AF93BF9373
S11309B0EF93FF93E0919C00F0919D00E230F105EC
S11309C009F00995FF91EF91BF91AF919F918F919C
S11309D07F916F915F914F913F912F910F900FBE37
S11309E00F901F9018951F920F920FB60F9211241B
S11309F02F933F934F935F936F937F938F939F9323
S1130A00AF93BF93EF93FF93E0919A00F0919B0013
S1130A10E230F10509F00995FF91EF91BF91AF9193
S1130A209F918F917F916F915F914F913F912F9102
S1130A300F900FBE0F901F90189583E389B98BB167
S1130A408D7F8BB98AB180618AB98AB188608AB98D
S1130A5008955F9BFECF8CB108951F920F920FB63D
S1130A600F9211242F933F934F935F936F937F9330
S1130A708F939F93AF93BF93EF93FF93E091A6005F
S1130A80F091A700E230F10509F00995FF91EF918B
S1130A90BF91AF919F918F917F916F915F914F9192
S1130AA03F912F910F900FBE0F901F9018951F929A
S1130AB00F920FB60F9211242F933F934F935F938E
S1130AC06F937F938F939F93AF93BF93EF93FF9312
S1130AD0E091A400F091A500E230F10509F0099538
S1130AE0FF91EF91BF91AF919F918F917F916F9102
S1130AF05F914F913F912F910F900FBE0F901F90D8
S1130B001895EF92FF920F931F93CF938C010E943D
S1130B102905F8018083C0E008C0CF5F7801EC0E9E
S1130B20F11C0E942905F7018083F801EC0FF11DE7
S1130B3080818D3091F71082CF911F910F91FF909A
S1130B40EF900895FB01DC0104C08D9101908019A0
S1130B5021F441505040C8F7881B990B0895F8942C
S1050B60FFCFC1
S1130B623031303130313031383432353137343557
S1130B72373130314141303000374633313335007B
S1130B823637303132373031333130314141303020
S1130B92020002000200020002000200020002003F
S1130BA20200020002000200010100000000000035
S1130BB2000000000000010000000000000000002E
S1130BC201000002020202024F4E3A20363730324E
S1110BD2004F46463A2037463237333500008E
S9030000FC
